{"abi":[{"type":"constructor","inputs":[{"name":"_owner","type":"address","internalType":"address"},{"name":"_name","type":"string","internalType":"string"},{"name":"_symbol","type":"string","internalType":"string"}],"stateMutability":"nonpayable"},{"type":"function","name":"approve","inputs":[{"name":"to","type":"address","internalType":"address"},{"name":"tokenId","type":"uint256","internalType":"uint256"}],"outputs":[],"stateMutability":"nonpayable"},{"type":"function","name":"balanceOf","inputs":[{"name":"owner","type":"address","internalType":"address"}],"outputs":[{"name":"","type":"uint256","internalType":"uint256"}],"stateMutability":"view"},{"type":"function","name":"burn","inputs":[{"name":"tokenId","type":"uint256","internalType":"uint256"}],"outputs":[],"stateMutability":"nonpayable"},{"type":"function","name":"getApproved","inputs":[{"name":"tokenId","type":"uint256","internalType":"uint256"}],"outputs":[{"name":"","type":"address","internalType":"address"}],"stateMutability":"view"},{"type":"function","name":"isApprovedForAll","inputs":[{"name":"owner","type":"address","internalType":"address"},{"name":"operator","type":"address","internalType":"address"}],"outputs":[{"name":"","type":"bool","internalType":"bool"}],"stateMutability":"view"},{"type":"function","name":"mintNFT","inputs":[{"name":"recipient","type":"address","internalType":"address"},{"name":"uri","type":"string","internalType":"string"}],"outputs":[],"stateMutability":"nonpayable"},{"type":"function","name":"name","inputs":[],"outputs":[{"name":"","type":"string","internalType":"string"}],"stateMutability":"view"},{"type":"function","name":"owner","inputs":[],"outputs":[{"name":"","type":"address","internalType":"address"}],"stateMutability":"view"},{"type":"function","name":"ownerOf","inputs":[{"name":"tokenId","type":"uint256","internalType":"uint256"}],"outputs":[{"name":"","type":"address","internalType":"address"}],"stateMutability":"view"},{"type":"function","name":"renounceOwnership","inputs":[],"outputs":[],"stateMutability":"nonpayable"},{"type":"function","name":"safeTransferFrom","inputs":[{"name":"from","type":"address","internalType":"address"},{"name":"to","type":"address","internalType":"address"},{"name":"tokenId","type":"uint256","internalType":"uint256"}],"outputs":[],"stateMutability":"nonpayable"},{"type":"function","name":"safeTransferFrom","inputs":[{"name":"from","type":"address","internalType":"address"},{"name":"to","type":"address","internalType":"address"},{"name":"tokenId","type":"uint256","internalType":"uint256"},{"name":"data","type":"bytes","internalType":"bytes"}],"outputs":[],"stateMutability":"nonpayable"},{"type":"function","name":"setApprovalForAll","inputs":[{"name":"operator","type":"address","internalType":"address"},{"name":"approved","type":"bool","internalType":"bool"}],"outputs":[],"stateMutability":"nonpayable"},{"type":"function","name":"supportsInterface","inputs":[{"name":"interfaceId","type":"bytes4","internalType":"bytes4"}],"outputs":[{"name":"","type":"bool","internalType":"bool"}],"stateMutability":"view"},{"type":"function","name":"symbol","inputs":[],"outputs":[{"name":"","type":"string","internalType":"string"}],"stateMutability":"view"},{"type":"function","name":"tokenCounter","inputs":[],"outputs":[{"name":"","type":"uint256","internalType":"uint256"}],"stateMutability":"view"},{"type":"function","name":"tokenURI","inputs":[{"name":"tokenId","type":"uint256","internalType":"uint256"}],"outputs":[{"name":"","type":"string","internalType":"string"}],"stateMutability":"view"},{"type":"function","name":"transferFrom","inputs":[{"name":"from","type":"address","internalType":"address"},{"name":"to","type":"address","internalType":"address"},{"name":"tokenId","type":"uint256","internalType":"uint256"}],"outputs":[],"stateMutability":"nonpayable"},{"type":"function","name":"transferOwnership","inputs":[{"name":"newOwner","type":"address","internalType":"address"}],"outputs":[],"stateMutability":"nonpayable"},{"type":"event","name":"Approval","inputs":[{"name":"owner","type":"address","indexed":true,"internalType":"address"},{"name":"approved","type":"address","indexed":true,"internalType":"address"},{"name":"tokenId","type":"uint256","indexed":true,"internalType":"uint256"}],"anonymous":false},{"type":"event","name":"ApprovalForAll","inputs":[{"name":"owner","type":"address","indexed":true,"internalType":"address"},{"name":"operator","type":"address","indexed":true,"internalType":"address"},{"name":"approved","type":"bool","indexed":false,"internalType":"bool"}],"anonymous":false},{"type":"event","name":"BatchMetadataUpdate","inputs":[{"name":"_fromTokenId","type":"uint256","indexed":false,"internalType":"uint256"},{"name":"_toTokenId","type":"uint256","indexed":false,"internalType":"uint256"}],"anonymous":false},{"type":"event","name":"MetadataUpdate","inputs":[{"name":"_tokenId","type":"uint256","indexed":false,"internalType":"uint256"}],"anonymous":false},{"type":"event","name":"NFTBurned","inputs":[{"name":"tokenId","type":"uint256","indexed":false,"internalType":"uint256"}],"anonymous":false},{"type":"event","name":"NFTMinted","inputs":[{"name":"recipient","type":"address","indexed":true,"internalType":"address"},{"name":"tokenId","type":"uint256","indexed":false,"internalType":"uint256"},{"name":"uri","type":"string","indexed":false,"internalType":"string"}],"anonymous":false},{"type":"event","name":"OwnershipTransferred","inputs":[{"name":"previousOwner","type":"address","indexed":true,"internalType":"address"},{"name":"newOwner","type":"address","indexed":true,"internalType":"address"}],"anonymous":false},{"type":"event","name":"Transfer","inputs":[{"name":"from","type":"address","indexed":true,"internalType":"address"},{"name":"to","type":"address","indexed":true,"internalType":"address"},{"name":"tokenId","type":"uint256","indexed":true,"internalType":"uint256"}],"anonymous":false},{"type":"error","name":"ERC721IncorrectOwner","inputs":[{"name":"sender","type":"address","internalType":"address"},{"name":"tokenId","type":"uint256","internalType":"uint256"},{"name":"owner","type":"address","internalType":"address"}]},{"type":"error","name":"ERC721InsufficientApproval","inputs":[{"name":"operator","type":"address","internalType":"address"},{"name":"tokenId","type":"uint256","internalType":"uint256"}]},{"type":"error","name":"ERC721InvalidApprover","inputs":[{"name":"approver","type":"address","internalType":"address"}]},{"type":"error","name":"ERC721InvalidOperator","inputs":[{"name":"operator","type":"address","internalType":"address"}]},{"type":"error","name":"ERC721InvalidOwner","inputs":[{"name":"owner","type":"address","internalType":"address"}]},{"type":"error","name":"ERC721InvalidReceiver","inputs":[{"name":"receiver","type":"address","internalType":"address"}]},{"type":"error","name":"ERC721InvalidSender","inputs":[{"name":"sender","type":"address","internalType":"address"}]},{"type":"error","name":"ERC721NonexistentToken","inputs":[{"name":"tokenId","type":"uint256","internalType":"uint256"}]},{"type":"error","name":"OwnableInvalidOwner","inputs":[{"name":"owner","type":"address","internalType":"address"}]},{"type":"error","name":"OwnableUnauthorizedAccount","inputs":[{"name":"account","type":"address","internalType":"address"}]}],"bytecode":{"object":"0x608060405234801561001057600080fd5b5060405161188038038061188083398101604081905261002f9161019f565b828282600061003e83826102b0565b50600161004b82826102b0565b5050506001600160a01b03811661007c57604051631e4fbdf760e01b81526000600482015260240160405180910390fd5b61008581610094565b505060006008555061036e9050565b600780546001600160a01b038381166001600160a01b0319831681179093556040519116919082907f8be0079c531659141344cd1fd0a4f28419497f9722a3daafe3b4186f6b6457e090600090a35050565b634e487b7160e01b600052604160045260246000fd5b600082601f83011261010d57600080fd5b81516001600160401b03811115610126576101266100e6565b604051601f8201601f19908116603f011681016001600160401b0381118282101715610154576101546100e6565b60405281815283820160200185101561016c57600080fd5b60005b8281101561018b5760208186018101518383018201520161016f565b506000918101602001919091529392505050565b6000806000606084860312156101b457600080fd5b83516001600160a01b03811681146101cb57600080fd5b60208501519093506001600160401b038111156101e757600080fd5b6101f3868287016100fc565b604086015190935090506001600160401b0381111561021157600080fd5b61021d868287016100fc565b9150509250925092565b600181811c9082168061023b57607f821691505b60208210810361025b57634e487b7160e01b600052602260045260246000fd5b50919050565b601f8211156102ab57806000526020600020601f840160051c810160208510156102885750805b601f840160051c820191505b818110156102a85760008155600101610294565b50505b505050565b81516001600160401b038111156102c9576102c96100e6565b6102dd816102d78454610227565b84610261565b6020601f82116001811461031157600083156102f95750848201515b600019600385901b1c1916600184901b1784556102a8565b600084815260208120601f198516915b828110156103415787850151825560209485019460019092019101610321565b508482101561035f5786840151600019600387901b60f8161c191681555b50505050600190811b01905550565b6115038061037d6000396000f3fe608060405234801561001057600080fd5b50600436106101215760003560e01c8063715018a6116100ad578063c87b56dd11610071578063c87b56dd14610257578063d082e3811461026a578063e985e9c514610272578063eacabe1414610285578063f2fde38b1461029857600080fd5b8063715018a6146102105780638da5cb5b1461021857806395d89b4114610229578063a22cb46514610231578063b88d4fde1461024457600080fd5b806323b872dd116100f457806323b872dd146101a357806342842e0e146101b657806342966c68146101c95780636352211e146101dc57806370a08231146101ef57600080fd5b806301ffc9a71461012657806306fdde031461014e578063081812fc14610163578063095ea7b31461018e575b600080fd5b610139610134366004610fb6565b6102ab565b60405190151581526020015b60405180910390f35b6101566102d6565b6040516101459190611023565b610176610171366004611036565b610368565b6040516001600160a01b039091168152602001610145565b6101a161019c36600461106b565b610391565b005b6101a16101b1366004611095565b6103a0565b6101a16101c4366004611095565b610430565b6101a16101d7366004611036565b610450565b6101766101ea366004611036565b610497565b6102026101fd3660046110d2565b6104a2565b604051908152602001610145565b6101a16104ea565b6007546001600160a01b0316610176565b6101566104fe565b6101a161023f3660046110ed565b61050d565b6101a16102523660046111b9565b610518565b610156610265366004611036565b61052f565b600854610202565b610139610280366004611235565b610640565b6101a1610293366004611268565b61066e565b6101a16102a63660046110d2565b6106ef565b60006001600160e01b03198216632483248360e11b14806102d057506102d08261072d565b92915050565b6060600080546102e5906112ca565b80601f0160208091040260200160405190810160405280929190818152602001828054610311906112ca565b801561035e5780601f106103335761010080835404028352916020019161035e565b820191906000526020600020905b81548152906001019060200180831161034157829003601f168201915b5050505050905090565b60006103738261077d565b506000828152600460205260409020546001600160a01b03166102d0565b61039c8282336107b6565b5050565b6001600160a01b0382166103cf57604051633250574960e11b8152600060048201526024015b60405180910390fd5b60006103dc8383336107c3565b9050836001600160a01b0316816001600160a01b03161461042a576040516364283d7b60e01b81526001600160a01b03808616600483015260248201849052821660448201526064016103c6565b50505050565b61044b83838360405180602001604052806000815250610518565b505050565b6104586108bc565b610461816108e9565b6040518181527f3c176691ca154a2f6fe978a2a633a33ee77dbe2902e67a75400720845a4b2ce19060200160405180910390a150565b60006102d08261077d565b60006001600160a01b0382166104ce576040516322718ad960e21b8152600060048201526024016103c6565b506001600160a01b031660009081526003602052604090205490565b6104f26108bc565b6104fc6000610924565b565b6060600180546102e5906112ca565b61039c338383610976565b6105238484846103a0565b61042a84848484610a15565b606061053a8261077d565b5060008281526006602052604081208054610554906112ca565b80601f0160208091040260200160405190810160405280929190818152602001828054610580906112ca565b80156105cd5780601f106105a2576101008083540402835291602001916105cd565b820191906000526020600020905b8154815290600101906020018083116105b057829003601f168201915b5050505050905060006105eb60408051602081019091526000815290565b905080516000036105fd575092915050565b81511561062f578082604051602001610617929190611304565b60405160208183030381529060405292505050919050565b61063884610b3e565b949350505050565b6001600160a01b03918216600090815260056020908152604080832093909416825291909152205460ff1690565b6106766108bc565b6008546106838382610bb3565b61068d8183610c18565b6001600860008282546106a09190611333565b92505081905550826001600160a01b03167fd35bb95e09c04b219e35047ce7b7b300e3384264ef84a40456943dbc0fc17c1482846040516106e2929190611354565b60405180910390a2505050565b6106f76108bc565b6001600160a01b03811661072157604051631e4fbdf760e01b8152600060048201526024016103c6565b61072a81610924565b50565b60006001600160e01b031982166380ac58cd60e01b148061075e57506001600160e01b03198216635b5e139f60e01b145b806102d057506301ffc9a760e01b6001600160e01b03198316146102d0565b6000818152600260205260408120546001600160a01b0316806102d057604051637e27328960e01b8152600481018490526024016103c6565b61044b8383836001610c68565b6000828152600260205260408120546001600160a01b03908116908316156107f0576107f0818486610d6e565b6001600160a01b0381161561082e5761080d600085600080610c68565b6001600160a01b038116600090815260036020526040902080546000190190555b6001600160a01b0385161561085d576001600160a01b0385166000908152600360205260409020805460010190555b60008481526002602052604080822080546001600160a01b0319166001600160a01b0389811691821790925591518793918516917fddf252ad1be2c89b69c2b068fc378daa952ba7f163c4a11628f55a4df523b3ef91a4949350505050565b6007546001600160a01b031633146104fc5760405163118cdaa760e01b81523360048201526024016103c6565b60006108f860008360006107c3565b90506001600160a01b03811661039c57604051637e27328960e01b8152600481018390526024016103c6565b600780546001600160a01b038381166001600160a01b0319831681179093556040519116919082907f8be0079c531659141344cd1fd0a4f28419497f9722a3daafe3b4186f6b6457e090600090a35050565b6001600160a01b0382166109a857604051630b61174360e31b81526001600160a01b03831660048201526024016103c6565b6001600160a01b03838116600081815260056020908152604080832094871680845294825291829020805460ff191686151590811790915591519182527f17307eab39ab6107e8899845ad3d59bd9653f200f220920489ca2b5937696c31910160405180910390a3505050565b6001600160a01b0383163b1561042a57604051630a85bd0160e11b81526001600160a01b0384169063150b7a0290610a5790339088908790879060040161136d565b6020604051808303816000875af1925050508015610a92575060408051601f3d908101601f19168201909252610a8f918101906113aa565b60015b610afb573d808015610ac0576040519150601f19603f3d011682016040523d82523d6000602084013e610ac5565b606091505b508051600003610af357604051633250574960e11b81526001600160a01b03851660048201526024016103c6565b805181602001fd5b6001600160e01b03198116630a85bd0160e11b14610b3757604051633250574960e11b81526001600160a01b03851660048201526024016103c6565b5050505050565b6060610b498261077d565b506000610b6160408051602081019091526000815290565b90506000815111610b815760405180602001604052806000815250610bac565b80610b8b84610dd2565b604051602001610b9c929190611304565b6040516020818303038152906040525b9392505050565b6001600160a01b038216610bdd57604051633250574960e11b8152600060048201526024016103c6565b6000610beb838360006107c3565b90506001600160a01b0381161561044b576040516339e3563760e11b8152600060048201526024016103c6565b6000828152600660205260409020610c30828261140e565b506040518281527ff8e1a15aba9398e019f0b49df1a4fde98ee17ae345cb5f6b5e2c27f5033e8ce79060200160405180910390a15050565b8080610c7c57506001600160a01b03821615155b15610d3e576000610c8c8461077d565b90506001600160a01b03831615801590610cb85750826001600160a01b0316816001600160a01b031614155b8015610ccb5750610cc98184610640565b155b15610cf45760405163a9fbf51f60e01b81526001600160a01b03841660048201526024016103c6565b8115610d3c5783856001600160a01b0316826001600160a01b03167f8c5be1e5ebec7d5bd14f71427d1e84f3dd0314c0f7b2291e5b200ac8c7c3b92560405160405180910390a45b505b5050600090815260046020526040902080546001600160a01b0319166001600160a01b0392909216919091179055565b610d79838383610e65565b61044b576001600160a01b038316610da757604051637e27328960e01b8152600481018290526024016103c6565b60405163177e802f60e01b81526001600160a01b0383166004820152602481018290526044016103c6565b60606000610ddf83610ec8565b600101905060008167ffffffffffffffff811115610dff57610dff611129565b6040519080825280601f01601f191660200182016040528015610e29576020820181803683370190505b5090508181016020015b600019016f181899199a1a9b1b9c1cb0b131b232b360811b600a86061a8153600a8504945084610e3357509392505050565b60006001600160a01b038316158015906106385750826001600160a01b0316846001600160a01b03161480610e9f5750610e9f8484610640565b806106385750506000908152600460205260409020546001600160a01b03908116911614919050565b60008072184f03e93ff9f4daa797ed6e38ed64bf6a1f0160401b8310610f075772184f03e93ff9f4daa797ed6e38ed64bf6a1f0160401b830492506040015b6d04ee2d6d415b85acef81000000008310610f33576d04ee2d6d415b85acef8100000000830492506020015b662386f26fc100008310610f5157662386f26fc10000830492506010015b6305f5e1008310610f69576305f5e100830492506008015b6127108310610f7d57612710830492506004015b60648310610f8f576064830492506002015b600a83106102d05760010192915050565b6001600160e01b03198116811461072a57600080fd5b600060208284031215610fc857600080fd5b8135610bac81610fa0565b60005b83811015610fee578181015183820152602001610fd6565b50506000910152565b6000815180845261100f816020860160208601610fd3565b601f01601f19169290920160200192915050565b602081526000610bac6020830184610ff7565b60006020828403121561104857600080fd5b5035919050565b80356001600160a01b038116811461106657600080fd5b919050565b6000806040838503121561107e57600080fd5b6110878361104f565b946020939093013593505050565b6000806000606084860312156110aa57600080fd5b6110b38461104f565b92506110c16020850161104f565b929592945050506040919091013590565b6000602082840312156110e457600080fd5b610bac8261104f565b6000806040838503121561110057600080fd5b6111098361104f565b91506020830135801515811461111e57600080fd5b809150509250929050565b634e487b7160e01b600052604160045260246000fd5b60008067ffffffffffffffff84111561115a5761115a611129565b50604051601f19601f85018116603f0116810181811067ffffffffffffffff8211171561118957611189611129565b6040528381529050808284018510156111a157600080fd5b83836020830137600060208583010152509392505050565b600080600080608085870312156111cf57600080fd5b6111d88561104f565b93506111e66020860161104f565b925060408501359150606085013567ffffffffffffffff81111561120957600080fd5b8501601f8101871361121a57600080fd5b6112298782356020840161113f565b91505092959194509250565b6000806040838503121561124857600080fd5b6112518361104f565b915061125f6020840161104f565b90509250929050565b6000806040838503121561127b57600080fd5b6112848361104f565b9150602083013567ffffffffffffffff8111156112a057600080fd5b8301601f810185136112b157600080fd5b6112c08582356020840161113f565b9150509250929050565b600181811c908216806112de57607f821691505b6020821081036112fe57634e487b7160e01b600052602260045260246000fd5b50919050565b60008351611316818460208801610fd3565b83519083019061132a818360208801610fd3565b01949350505050565b808201808211156102d057634e487b7160e01b600052601160045260246000fd5b8281526040602082015260006106386040830184610ff7565b6001600160a01b03858116825284166020820152604081018390526080606082018190526000906113a090830184610ff7565b9695505050505050565b6000602082840312156113bc57600080fd5b8151610bac81610fa0565b601f82111561044b57806000526020600020601f840160051c810160208510156113ee5750805b601f840160051c820191505b81811015610b3757600081556001016113fa565b815167ffffffffffffffff81111561142857611428611129565b61143c8161143684546112ca565b846113c7565b6020601f82116001811461147057600083156114585750848201515b600019600385901b1c1916600184901b178455610b37565b600084815260208120601f198516915b828110156114a05787850151825560209485019460019092019101611480565b50848210156114be5786840151600019600387901b60f8161c191681555b50505050600190811b0190555056fea2646970667358221220e3303f064e3de18ab82d3f453ff8efbf2929e0f681746b4a4baf3fcb434b895a64736f6c634300081a0033","linkReferences":{}},"methodIdentifiers":{"approve(address,uint256)":"095ea7b3","balanceOf(address)":"70a08231","burn(uint256)":"42966c68","getApproved(uint256)":"081812fc","isApprovedForAll(address,address)":"e985e9c5","mintNFT(address,string)":"eacabe14","name()":"06fdde03","owner()":"8da5cb5b","ownerOf(uint256)":"6352211e","renounceOwnership()":"715018a6","safeTransferFrom(address,address,uint256)":"42842e0e","safeTransferFrom(address,address,uint256,bytes)":"b88d4fde","setApprovalForAll(address,bool)":"a22cb465","supportsInterface(bytes4)":"01ffc9a7","symbol()":"95d89b41","tokenCounter()":"d082e381","tokenURI(uint256)":"c87b56dd","transferFrom(address,address,uint256)":"23b872dd","transferOwnership(address)":"f2fde38b"},"storageLayout":{"storage":[{"astId":39372,"contract":"src/EnteralKingDomERC21.sol:EnteralKingDomERC21","label":"_name","offset":0,"slot":"0","type":"t_string_storage"},{"astId":39374,"contract":"src/EnteralKingDomERC21.sol:EnteralKingDomERC21","label":"_symbol","offset":0,"slot":"1","type":"t_string_storage"},{"astId":39378,"contract":"src/EnteralKingDomERC21.sol:EnteralKingDomERC21","label":"_owners","offset":0,"slot":"2","type":"t_mapping(t_uint256,t_address)"},{"astId":39382,"contract":"src/EnteralKingDomERC21.sol:EnteralKingDomERC21","label":"_balances","offset":0,"slot":"3","type":"t_mapping(t_address,t_uint256)"},{"astId":39386,"contract":"src/EnteralKingDomERC21.sol:EnteralKingDomERC21","label":"_tokenApprovals","offset":0,"slot":"4","type":"t_mapping(t_uint256,t_address)"},{"astId":39392,"contract":"src/EnteralKingDomERC21.sol:EnteralKingDomERC21","label":"_operatorApprovals","offset":0,"slot":"5","type":"t_mapping(t_address,t_mapping(t_address,t_bool))"},{"astId":40511,"contract":"src/EnteralKingDomERC21.sol:EnteralKingDomERC21","label":"_tokenURIs","offset":0,"slot":"6","type":"t_mapping(t_uint256,t_string_storage)"},{"astId":39031,"contract":"src/EnteralKingDomERC21.sol:EnteralKingDomERC21","label":"_owner","offset":0,"slot":"7","type":"t_address"},{"astId":42164,"contract":"src/EnteralKingDomERC21.sol:EnteralKingDomERC21","label":"_tokenCounter","offset":0,"slot":"8","type":"t_uint256"}],"types":{"t_address":{"encoding":"inplace","label":"address","numberOfBytes":"20"},"t_bool":{"encoding":"inplace","label":"bool","numberOfBytes":"1"},"t_mapping(t_address,t_bool)":{"encoding":"mapping","key":"t_address","label":"mapping(address => bool)","numberOfBytes":"32","value":"t_bool"},"t_mapping(t_address,t_mapping(t_address,t_bool))":{"encoding":"mapping","key":"t_address","label":"mapping(address => mapping(address => bool))","numberOfBytes":"32","value":"t_mapping(t_address,t_bool)"},"t_mapping(t_address,t_uint256)":{"encoding":"mapping","key":"t_address","label":"mapping(address => uint256)","numberOfBytes":"32","value":"t_uint256"},"t_mapping(t_uint256,t_address)":{"encoding":"mapping","key":"t_uint256","label":"mapping(uint256 => address)","numberOfBytes":"32","value":"t_address"},"t_mapping(t_uint256,t_string_storage)":{"encoding":"mapping","key":"t_uint256","label":"mapping(uint256 => string)","numberOfBytes":"32","value":"t_string_storage"},"t_string_storage":{"encoding":"bytes","label":"string","numberOfBytes":"32"},"t_uint256":{"encoding":"inplace","label":"uint256","numberOfBytes":"32"}}},"id":41}