{
    "abi": [
        {
            "type": "constructor",
            "inputs": [],
            "stateMutability": "nonpayable"
        },
        {
            "type": "function",
            "name": "deploy",
            "inputs": [
                {
                    "name": "_owner",
                    "type": "address",
                    "internalType": "address"
                },
                {
                    "name": "_salt",
                    "type": "uint256",
                    "internalType": "uint256"
                },
                {
                    "name": "_name",
                    "type": "string",
                    "internalType": "string"
                },
                {
                    "name": "_symbol",
                    "type": "string",
                    "internalType": "string"
                }
            ],
            "outputs": [
                {
                    "name": "",
                    "type": "address",
                    "internalType": "address"
                }
            ],
            "stateMutability": "nonpayable"
        },
        {
            "type": "function",
            "name": "getByteCodeContract",
            "inputs": [
                {
                    "name": "_owner",
                    "type": "address",
                    "internalType": "address"
                },
                {
                    "name": "_name",
                    "type": "string",
                    "internalType": "string"
                },
                {
                    "name": "_symbol",
                    "type": "string",
                    "internalType": "string"
                }
            ],
            "outputs": [
                {
                    "name": "",
                    "type": "bytes",
                    "internalType": "bytes"
                }
            ],
            "stateMutability": "pure"
        },
        {
            "type": "function",
            "name": "getContractAddress",
            "inputs": [
                {
                    "name": "_owner",
                    "type": "address",
                    "internalType": "address"
                },
                {
                    "name": "_name",
                    "type": "string",
                    "internalType": "string"
                },
                {
                    "name": "_symbol",
                    "type": "string",
                    "internalType": "string"
                },
                {
                    "name": "_salt",
                    "type": "uint256",
                    "internalType": "uint256"
                }
            ],
            "outputs": [
                {
                    "name": "",
                    "type": "address",
                    "internalType": "address"
                }
            ],
            "stateMutability": "view"
        },
        {
            "type": "function",
            "name": "nfts",
            "inputs": [
                {
                    "name": "",
                    "type": "uint256",
                    "internalType": "uint256"
                }
            ],
            "outputs": [
                {
                    "name": "",
                    "type": "address",
                    "internalType": "address"
                }
            ],
            "stateMutability": "view"
        },
        {
            "type": "function",
            "name": "owner",
            "inputs": [],
            "outputs": [
                {
                    "name": "",
                    "type": "address",
                    "internalType": "address"
                }
            ],
            "stateMutability": "view"
        },
        {
            "type": "function",
            "name": "renounceOwnership",
            "inputs": [],
            "outputs": [],
            "stateMutability": "nonpayable"
        },
        {
            "type": "function",
            "name": "transferOwnership",
            "inputs": [
                {
                    "name": "newOwner",
                    "type": "address",
                    "internalType": "address"
                }
            ],
            "outputs": [],
            "stateMutability": "nonpayable"
        },
        {
            "type": "event",
            "name": "Deployed",
            "inputs": [
                {
                    "name": "addr",
                    "type": "address",
                    "indexed": false,
                    "internalType": "address"
                }
            ],
            "anonymous": false
        },
        {
            "type": "event",
            "name": "OwnershipTransferred",
            "inputs": [
                {
                    "name": "previousOwner",
                    "type": "address",
                    "indexed": true,
                    "internalType": "address"
                },
                {
                    "name": "newOwner",
                    "type": "address",
                    "indexed": true,
                    "internalType": "address"
                }
            ],
            "anonymous": false
        },
        {
            "type": "error",
            "name": "OwnableInvalidOwner",
            "inputs": [
                {
                    "name": "owner",
                    "type": "address",
                    "internalType": "address"
                }
            ]
        },
        {
            "type": "error",
            "name": "OwnableUnauthorizedAccount",
            "inputs": [
                {
                    "name": "account",
                    "type": "address",
                    "internalType": "address"
                }
            ]
        }
    ],
    "bytecode": {
        "object": "0x6080604052348015600f57600080fd5b503380603557604051631e4fbdf760e01b81526000600482015260240160405180910390fd5b603c816041565b506091565b600080546001600160a01b038381166001600160a01b0319831681178455604051919092169283917f8be0079c531659141344cd1fd0a4f28419497f9722a3daafe3b4186f6b6457e09190a35050565b6122d8806100a06000396000f3fe608060405234801561001057600080fd5b506004361061007d5760003560e01c80638da5cb5b1161005b5780638da5cb5b146100e55780639d61bb4a146100f6578063dc557c8014610116578063f2fde38b1461012957600080fd5b8063265aa6211461008257806338ba4170146100c8578063715018a6146100db575b600080fd5b6100ab610090366004610422565b6001602052600090815260409020546001600160a01b031681565b6040516001600160a01b0390911681526020015b60405180910390f35b6100ab6100d63660046104a0565b61013c565b6100e36101b3565b005b6000546001600160a01b03166100ab565b61010961010436600461052e565b6101c7565b6040516100bf91906105d8565b6100ab61012436600461060b565b61023c565b6100e361013736600461069a565b61035a565b60008061014c88888888886101c7565b8051602091820120604080516001600160f81b0319818501523060601b6bffffffffffffffffffffffff1916602182015260358101969096526055808701929092528051808703909201825260759095019094528351930192909220979650505050505050565b6101bb610398565b6101c560006103c5565b565b6060604051806020016101d990610415565b601f1982820381018352601f90910116604081905261020490889088908890889088906020016106e5565b60408051601f19818403018152908290526102229291602001610729565b604051602081830303815290604052905095945050505050565b6000610246610398565b6000868152600160205260409020546001600160a01b0316156102a25760405162461bcd60e51b815260206004820152600f60248201526e436f6e74726163747320657869747360881b60448201526064015b60405180910390fd5b60008660001b88878787876040516102b990610415565b6102c79594939291906106e5565b8190604051809103906000f59050801580156102e7573d6000803e3d6000fd5b506040516001600160a01b03821681529091507ff40fcec21964ffb566044d083b4073f29f7f7929110ea19e1b3ebe375d89055e9060200160405180910390a160009687526001602052604090962080546001600160a01b0319166001600160a01b038816179055509395945050505050565b610362610398565b6001600160a01b03811661038c57604051631e4fbdf760e01b815260006004820152602401610299565b610395816103c5565b50565b6000546001600160a01b031633146101c55760405163118cdaa760e01b8152336004820152602401610299565b600080546001600160a01b038381166001600160a01b0319831681178455604051919092169283917f8be0079c531659141344cd1fd0a4f28419497f9722a3daafe3b4186f6b6457e09190a35050565b611b4a8061075983390190565b60006020828403121561043457600080fd5b5035919050565b80356001600160a01b038116811461045257600080fd5b919050565b60008083601f84011261046957600080fd5b50813567ffffffffffffffff81111561048157600080fd5b60208301915083602082850101111561049957600080fd5b9250929050565b600080600080600080608087890312156104b957600080fd5b6104c28761043b565b9550602087013567ffffffffffffffff8111156104de57600080fd5b6104ea89828a01610457565b909650945050604087013567ffffffffffffffff81111561050a57600080fd5b61051689828a01610457565b979a9699509497949695606090950135949350505050565b60008060008060006060868803121561054657600080fd5b61054f8661043b565b9450602086013567ffffffffffffffff81111561056b57600080fd5b61057788828901610457565b909550935050604086013567ffffffffffffffff81111561059757600080fd5b6105a388828901610457565b969995985093965092949392505050565b60005b838110156105cf5781810151838201526020016105b7565b50506000910152565b60208152600082518060208401526105f78160408501602087016105b4565b601f01601f19169190910160400192915050565b6000806000806000806080878903121561062457600080fd5b61062d8761043b565b955060208701359450604087013567ffffffffffffffff81111561065057600080fd5b61065c89828a01610457565b909550935050606087013567ffffffffffffffff81111561067c57600080fd5b61068889828a01610457565b979a9699509497509295939492505050565b6000602082840312156106ac57600080fd5b6106b58261043b565b9392505050565b81835281816020850137506000828201602090810191909152601f909101601f19169091010190565b6001600160a01b038616815260606020820181905260009061070a90830186886106bc565b828103604084015261071d8185876106bc565b98975050505050505050565b6000835161073b8184602088016105b4565b83519083019061074f8183602088016105b4565b0194935050505056fe608060405234801561001057600080fd5b50604051611b4a380380611b4a83398101604081905261002f9161019f565b828282600061003e83826102b0565b50600161004b82826102b0565b5050506001600160a01b03811661007c57604051631e4fbdf760e01b81526000600482015260240160405180910390fd5b61008581610094565b505060006008555061036e9050565b600780546001600160a01b038381166001600160a01b0319831681179093556040519116919082907f8be0079c531659141344cd1fd0a4f28419497f9722a3daafe3b4186f6b6457e090600090a35050565b634e487b7160e01b600052604160045260246000fd5b600082601f83011261010d57600080fd5b81516001600160401b03811115610126576101266100e6565b604051601f8201601f19908116603f011681016001600160401b0381118282101715610154576101546100e6565b60405281815283820160200185101561016c57600080fd5b60005b8281101561018b5760208186018101518383018201520161016f565b506000918101602001919091529392505050565b6000806000606084860312156101b457600080fd5b83516001600160a01b03811681146101cb57600080fd5b60208501519093506001600160401b038111156101e757600080fd5b6101f3868287016100fc565b604086015190935090506001600160401b0381111561021157600080fd5b61021d868287016100fc565b9150509250925092565b600181811c9082168061023b57607f821691505b60208210810361025b57634e487b7160e01b600052602260045260246000fd5b50919050565b601f8211156102ab57806000526020600020601f840160051c810160208510156102885750805b601f840160051c820191505b818110156102a85760008155600101610294565b50505b505050565b81516001600160401b038111156102c9576102c96100e6565b6102dd816102d78454610227565b84610261565b6020601f82116001811461031157600083156102f95750848201515b600019600385901b1c1916600184901b1784556102a8565b600084815260208120601f198516915b828110156103415787850151825560209485019460019092019101610321565b508482101561035f5786840151600019600387901b60f8161c191681555b50505050600190811b01905550565b6117cd8061037d6000396000f3fe608060405234801561001057600080fd5b506004361061012c5760003560e01c80638da5cb5b116100ad578063c87b56dd11610071578063c87b56dd1461026a578063e86ce6521461027d578063e985e9c514610290578063eacabe14146102a3578063f2fde38b146102b657600080fd5b80638da5cb5b1461022357806395d89b4114610234578063a22cb4651461023c578063a2309ff81461024f578063b88d4fde1461025757600080fd5b806342842e0e116100f457806342842e0e146101c157806342966c68146101d45780636352211e146101e757806370a08231146101fa578063715018a61461021b57600080fd5b806301ffc9a71461013157806306fdde0314610159578063081812fc1461016e578063095ea7b31461019957806323b872dd146101ae575b600080fd5b61014461013f3660046110d6565b6102c9565b60405190151581526020015b60405180910390f35b6101616102f4565b6040516101509190611143565b61018161017c366004611156565b610386565b6040516001600160a01b039091168152602001610150565b6101ac6101a736600461118b565b6103af565b005b6101ac6101bc3660046111b5565b6103be565b6101ac6101cf3660046111b5565b61044e565b6101ac6101e2366004611156565b61046e565b6101816101f5366004611156565b6104ad565b61020d6102083660046111f2565b6104b8565b604051908152602001610150565b6101ac610500565b6007546001600160a01b0316610181565b610161610514565b6101ac61024a36600461120d565b610523565b60085461020d565b6101ac6102653660046112ec565b61052e565b610161610278366004611156565b610545565b6101ac61028b36600461143e565b610656565b61014461029e366004611507565b610756565b6101ac6102b136600461153a565b610784565b6101ac6102c43660046111f2565b610796565b60006001600160e01b03198216632483248360e11b14806102ee57506102ee826107d4565b92915050565b6060600080546103039061157e565b80601f016020809104026020016040519081016040528092919081815260200182805461032f9061157e565b801561037c5780601f106103515761010080835404028352916020019161037c565b820191906000526020600020905b81548152906001019060200180831161035f57829003601f168201915b5050505050905090565b600061039182610824565b506000828152600460205260409020546001600160a01b03166102ee565b6103ba82823361085d565b5050565b6001600160a01b0382166103ed57604051633250574960e11b8152600060048201526024015b60405180910390fd5b60006103fa83833361086a565b9050836001600160a01b0316816001600160a01b031614610448576040516364283d7b60e01b81526001600160a01b03808616600483015260248201849052821660448201526064016103e4565b50505050565b6104698383836040518060200160405280600081525061052e565b505050565b61047781610963565b6040518181527f3c176691ca154a2f6fe978a2a633a33ee77dbe2902e67a75400720845a4b2ce19060200160405180910390a150565b60006102ee82610824565b60006001600160a01b0382166104e4576040516322718ad960e21b8152600060048201526024016103e4565b506001600160a01b031660009081526003602052604090205490565b61050861099e565b61051260006109cb565b565b6060600180546103039061157e565b6103ba338383610a1d565b6105398484846103be565b61044884848484610abc565b606061055082610824565b506000828152600660205260408120805461056a9061157e565b80601f01602080910402602001604051908101604052809291908181526020018280546105969061157e565b80156105e35780601f106105b8576101008083540402835291602001916105e3565b820191906000526020600020905b8154815290600101906020018083116105c657829003601f168201915b50505050509050600061060160408051602081019091526000815290565b90508051600003610613575092915050565b81511561064557808260405160200161062d9291906115b8565b60405160208183030381529060405292505050919050565b61064e84610be5565b949350505050565b61065e61099e565b60008251116106a85760405162461bcd60e51b81526020600482015260166024820152750526563697069656e7473206c656e67746820697320360541b60448201526064016103e4565b80518251146107055760405162461bcd60e51b815260206004820152602360248201527f526563697069656e747320616e642055524973206c656e677468206d69736d616044820152620e8c6d60eb1b60648201526084016103e4565b815160005b818110156104485761074e848281518110610727576107276115e7565b6020026020010151848381518110610741576107416115e7565b6020026020010151610c5a565b60010161070a565b6001600160a01b03918216600090815260056020908152604080832093909416825291909152205460ff1690565b61078c61099e565b6103ba8282610c5a565b61079e61099e565b6001600160a01b0381166107c857604051631e4fbdf760e01b8152600060048201526024016103e4565b6107d1816109cb565b50565b60006001600160e01b031982166380ac58cd60e01b148061080557506001600160e01b03198216635b5e139f60e01b145b806102ee57506301ffc9a760e01b6001600160e01b03198316146102ee565b6000818152600260205260408120546001600160a01b0316806102ee57604051637e27328960e01b8152600481018490526024016103e4565b6104698383836001610cd3565b6000828152600260205260408120546001600160a01b039081169083161561089757610897818486610dd9565b6001600160a01b038116156108d5576108b4600085600080610cd3565b6001600160a01b038116600090815260036020526040902080546000190190555b6001600160a01b03851615610904576001600160a01b0385166000908152600360205260409020805460010190555b60008481526002602052604080822080546001600160a01b0319166001600160a01b0389811691821790925591518793918516917fddf252ad1be2c89b69c2b068fc378daa952ba7f163c4a11628f55a4df523b3ef91a4949350505050565b6000610972600083600061086a565b90506001600160a01b0381166103ba57604051637e27328960e01b8152600481018390526024016103e4565b6007546001600160a01b031633146105125760405163118cdaa760e01b81523360048201526024016103e4565b600780546001600160a01b038381166001600160a01b0319831681179093556040519116919082907f8be0079c531659141344cd1fd0a4f28419497f9722a3daafe3b4186f6b6457e090600090a35050565b6001600160a01b038216610a4f57604051630b61174360e31b81526001600160a01b03831660048201526024016103e4565b6001600160a01b03838116600081815260056020908152604080832094871680845294825291829020805460ff191686151590811790915591519182527f17307eab39ab6107e8899845ad3d59bd9653f200f220920489ca2b5937696c31910160405180910390a3505050565b6001600160a01b0383163b1561044857604051630a85bd0160e11b81526001600160a01b0384169063150b7a0290610afe9033908890879087906004016115fd565b6020604051808303816000875af1925050508015610b39575060408051601f3d908101601f19168201909252610b369181019061163a565b60015b610ba2573d808015610b67576040519150601f19603f3d011682016040523d82523d6000602084013e610b6c565b606091505b508051600003610b9a57604051633250574960e11b81526001600160a01b03851660048201526024016103e4565b805181602001fd5b6001600160e01b03198116630a85bd0160e11b14610bde57604051633250574960e11b81526001600160a01b03851660048201526024016103e4565b5050505050565b6060610bf082610824565b506000610c0860408051602081019091526000815290565b90506000815111610c285760405180602001604052806000815250610c53565b80610c3284610e3d565b604051602001610c439291906115b8565b6040516020818303038152906040525b9392505050565b600854610c678382610ed0565b610c718183610f35565b600160086000828254610c849190611657565b92505081905550826001600160a01b03167fd35bb95e09c04b219e35047ce7b7b300e3384264ef84a40456943dbc0fc17c148284604051610cc6929190611678565b60405180910390a2505050565b8080610ce757506001600160a01b03821615155b15610da9576000610cf784610824565b90506001600160a01b03831615801590610d235750826001600160a01b0316816001600160a01b031614155b8015610d365750610d348184610756565b155b15610d5f5760405163a9fbf51f60e01b81526001600160a01b03841660048201526024016103e4565b8115610da75783856001600160a01b0316826001600160a01b03167f8c5be1e5ebec7d5bd14f71427d1e84f3dd0314c0f7b2291e5b200ac8c7c3b92560405160405180910390a45b505b5050600090815260046020526040902080546001600160a01b0319166001600160a01b0392909216919091179055565b610de4838383610f85565b610469576001600160a01b038316610e1257604051637e27328960e01b8152600481018290526024016103e4565b60405163177e802f60e01b81526001600160a01b0383166004820152602481018290526044016103e4565b60606000610e4a83610fe8565b600101905060008167ffffffffffffffff811115610e6a57610e6a611249565b6040519080825280601f01601f191660200182016040528015610e94576020820181803683370190505b5090508181016020015b600019016f181899199a1a9b1b9c1cb0b131b232b360811b600a86061a8153600a8504945084610e9e57509392505050565b6001600160a01b038216610efa57604051633250574960e11b8152600060048201526024016103e4565b6000610f088383600061086a565b90506001600160a01b03811615610469576040516339e3563760e11b8152600060048201526024016103e4565b6000828152600660205260409020610f4d82826116d8565b506040518281527ff8e1a15aba9398e019f0b49df1a4fde98ee17ae345cb5f6b5e2c27f5033e8ce79060200160405180910390a15050565b60006001600160a01b0383161580159061064e5750826001600160a01b0316846001600160a01b03161480610fbf5750610fbf8484610756565b8061064e5750506000908152600460205260409020546001600160a01b03908116911614919050565b60008072184f03e93ff9f4daa797ed6e38ed64bf6a1f0160401b83106110275772184f03e93ff9f4daa797ed6e38ed64bf6a1f0160401b830492506040015b6d04ee2d6d415b85acef81000000008310611053576d04ee2d6d415b85acef8100000000830492506020015b662386f26fc10000831061107157662386f26fc10000830492506010015b6305f5e1008310611089576305f5e100830492506008015b612710831061109d57612710830492506004015b606483106110af576064830492506002015b600a83106102ee5760010192915050565b6001600160e01b0319811681146107d157600080fd5b6000602082840312156110e857600080fd5b8135610c53816110c0565b60005b8381101561110e5781810151838201526020016110f6565b50506000910152565b6000815180845261112f8160208601602086016110f3565b601f01601f19169290920160200192915050565b602081526000610c536020830184611117565b60006020828403121561116857600080fd5b5035919050565b80356001600160a01b038116811461118657600080fd5b919050565b6000806040838503121561119e57600080fd5b6111a78361116f565b946020939093013593505050565b6000806000606084860312156111ca57600080fd5b6111d38461116f565b92506111e16020850161116f565b929592945050506040919091013590565b60006020828403121561120457600080fd5b610c538261116f565b6000806040838503121561122057600080fd5b6112298361116f565b91506020830135801515811461123e57600080fd5b809150509250929050565b634e487b7160e01b600052604160045260246000fd5b604051601f8201601f1916810167ffffffffffffffff8111828210171561128857611288611249565b604052919050565b60008067ffffffffffffffff8411156112ab576112ab611249565b50601f8301601f19166020016112c08161125f565b9150508281528383830111156112d557600080fd5b828260208301376000602084830101529392505050565b6000806000806080858703121561130257600080fd5b61130b8561116f565b93506113196020860161116f565b925060408501359150606085013567ffffffffffffffff81111561133c57600080fd5b8501601f8101871361134d57600080fd5b61135c87823560208401611290565b91505092959194509250565b600067ffffffffffffffff82111561138257611382611249565b5060051b60200190565b600082601f83011261139d57600080fd5b610c5383833560208501611290565b600082601f8301126113bd57600080fd5b81356113d06113cb82611368565b61125f565b8082825260208201915060208360051b8601019250858311156113f257600080fd5b602085015b8381101561143457803567ffffffffffffffff81111561141657600080fd5b611425886020838a010161138c565b845250602092830192016113f7565b5095945050505050565b6000806040838503121561145157600080fd5b823567ffffffffffffffff81111561146857600080fd5b8301601f8101851361147957600080fd5b80356114876113cb82611368565b8082825260208201915060208360051b8501019250878311156114a957600080fd5b6020840193505b828410156114d2576114c18461116f565b8252602093840193909101906114b0565b9450505050602083013567ffffffffffffffff8111156114f157600080fd5b6114fd858286016113ac565b9150509250929050565b6000806040838503121561151a57600080fd5b6115238361116f565b91506115316020840161116f565b90509250929050565b6000806040838503121561154d57600080fd5b6115568361116f565b9150602083013567ffffffffffffffff81111561157257600080fd5b6114fd8582860161138c565b600181811c9082168061159257607f821691505b6020821081036115b257634e487b7160e01b600052602260045260246000fd5b50919050565b600083516115ca8184602088016110f3565b8351908301906115de8183602088016110f3565b01949350505050565b634e487b7160e01b600052603260045260246000fd5b6001600160a01b038581168252841660208201526040810183905260806060820181905260009061163090830184611117565b9695505050505050565b60006020828403121561164c57600080fd5b8151610c53816110c0565b808201808211156102ee57634e487b7160e01b600052601160045260246000fd5b82815260406020820152600061064e6040830184611117565b601f82111561046957806000526020600020601f840160051c810160208510156116b85750805b601f840160051c820191505b81811015610bde57600081556001016116c4565b815167ffffffffffffffff8111156116f2576116f2611249565b61170681611700845461157e565b84611691565b6020601f82116001811461173a57600083156117225750848201515b600019600385901b1c1916600184901b178455610bde565b600084815260208120601f198516915b8281101561176a578785015182556020948501946001909201910161174a565b50848210156117885786840151600019600387901b60f8161c191681555b50505050600190811b0190555056fea2646970667358221220e3f57a77fb79a02ffbcecee595fa222f09567c0f56783ddf3e97982a06b4dcfa64736f6c634300081a0033a2646970667358221220173e041bbb0853dab8eacf680ee950e937e86e89f868c531792bdfa9f6993ce564736f6c634300081a0033",
        "linkReferences": {}
    },
    "methodIdentifiers": {
        "deploy(address,uint256,string,string)": "dc557c80",
        "getByteCodeContract(address,string,string)": "9d61bb4a",
        "getContractAddress(address,string,string,uint256)": "38ba4170",
        "nfts(uint256)": "265aa621",
        "owner()": "8da5cb5b",
        "renounceOwnership()": "715018a6",
        "transferOwnership(address)": "f2fde38b"
    },
    "storageLayout": {
        "storage": [
            {
                "astId": 39031,
                "contract": "src/EnteralKingdomNFTFactory.sol:EnteralKingdomNFTFactory2",
                "label": "_owner",
                "offset": 0,
                "slot": "0",
                "type": "t_address"
            },
            {
                "astId": 42342,
                "contract": "src/EnteralKingdomNFTFactory.sol:EnteralKingdomNFTFactory2",
                "label": "nfts",
                "offset": 0,
                "slot": "1",
                "type": "t_mapping(t_uint256,t_address)"
            }
        ],
        "types": {
            "t_address": {
                "encoding": "inplace",
                "label": "address",
                "numberOfBytes": "20"
            },
            "t_mapping(t_uint256,t_address)": {
                "encoding": "mapping",
                "key": "t_uint256",
                "label": "mapping(uint256 => address)",
                "numberOfBytes": "32",
                "value": "t_address"
            },
            "t_uint256": {
                "encoding": "inplace",
                "label": "uint256",
                "numberOfBytes": "32"
            }
        }
    },
    "id": 42
}