{"abi":[{"type":"constructor","inputs":[{"name":"_name","type":"string","internalType":"string"},{"name":"_symbol","type":"string","internalType":"string"}],"stateMutability":"nonpayable"},{"type":"function","name":"approve","inputs":[{"name":"to","type":"address","internalType":"address"},{"name":"tokenId","type":"uint256","internalType":"uint256"}],"outputs":[],"stateMutability":"nonpayable"},{"type":"function","name":"balanceOf","inputs":[{"name":"owner","type":"address","internalType":"address"}],"outputs":[{"name":"","type":"uint256","internalType":"uint256"}],"stateMutability":"view"},{"type":"function","name":"burn","inputs":[{"name":"tokenId","type":"uint256","internalType":"uint256"}],"outputs":[],"stateMutability":"nonpayable"},{"type":"function","name":"getApproved","inputs":[{"name":"tokenId","type":"uint256","internalType":"uint256"}],"outputs":[{"name":"","type":"address","internalType":"address"}],"stateMutability":"view"},{"type":"function","name":"isApprovedForAll","inputs":[{"name":"owner","type":"address","internalType":"address"},{"name":"operator","type":"address","internalType":"address"}],"outputs":[{"name":"","type":"bool","internalType":"bool"}],"stateMutability":"view"},{"type":"function","name":"mintNFT","inputs":[{"name":"recipient","type":"address","internalType":"address"},{"name":"uri","type":"string","internalType":"string"}],"outputs":[],"stateMutability":"nonpayable"},{"type":"function","name":"name","inputs":[],"outputs":[{"name":"","type":"string","internalType":"string"}],"stateMutability":"view"},{"type":"function","name":"owner","inputs":[],"outputs":[{"name":"","type":"address","internalType":"address"}],"stateMutability":"view"},{"type":"function","name":"ownerOf","inputs":[{"name":"tokenId","type":"uint256","internalType":"uint256"}],"outputs":[{"name":"","type":"address","internalType":"address"}],"stateMutability":"view"},{"type":"function","name":"renounceOwnership","inputs":[],"outputs":[],"stateMutability":"nonpayable"},{"type":"function","name":"safeTransferFrom","inputs":[{"name":"from","type":"address","internalType":"address"},{"name":"to","type":"address","internalType":"address"},{"name":"tokenId","type":"uint256","internalType":"uint256"}],"outputs":[],"stateMutability":"nonpayable"},{"type":"function","name":"safeTransferFrom","inputs":[{"name":"from","type":"address","internalType":"address"},{"name":"to","type":"address","internalType":"address"},{"name":"tokenId","type":"uint256","internalType":"uint256"},{"name":"data","type":"bytes","internalType":"bytes"}],"outputs":[],"stateMutability":"nonpayable"},{"type":"function","name":"setApprovalForAll","inputs":[{"name":"operator","type":"address","internalType":"address"},{"name":"approved","type":"bool","internalType":"bool"}],"outputs":[],"stateMutability":"nonpayable"},{"type":"function","name":"supportsInterface","inputs":[{"name":"interfaceId","type":"bytes4","internalType":"bytes4"}],"outputs":[{"name":"","type":"bool","internalType":"bool"}],"stateMutability":"view"},{"type":"function","name":"symbol","inputs":[],"outputs":[{"name":"","type":"string","internalType":"string"}],"stateMutability":"view"},{"type":"function","name":"tokenURI","inputs":[{"name":"tokenId","type":"uint256","internalType":"uint256"}],"outputs":[{"name":"","type":"string","internalType":"string"}],"stateMutability":"view"},{"type":"function","name":"transferFrom","inputs":[{"name":"from","type":"address","internalType":"address"},{"name":"to","type":"address","internalType":"address"},{"name":"tokenId","type":"uint256","internalType":"uint256"}],"outputs":[],"stateMutability":"nonpayable"},{"type":"function","name":"transferOwnership","inputs":[{"name":"newOwner","type":"address","internalType":"address"}],"outputs":[],"stateMutability":"nonpayable"},{"type":"event","name":"Approval","inputs":[{"name":"owner","type":"address","indexed":true,"internalType":"address"},{"name":"approved","type":"address","indexed":true,"internalType":"address"},{"name":"tokenId","type":"uint256","indexed":true,"internalType":"uint256"}],"anonymous":false},{"type":"event","name":"ApprovalForAll","inputs":[{"name":"owner","type":"address","indexed":true,"internalType":"address"},{"name":"operator","type":"address","indexed":true,"internalType":"address"},{"name":"approved","type":"bool","indexed":false,"internalType":"bool"}],"anonymous":false},{"type":"event","name":"BatchMetadataUpdate","inputs":[{"name":"_fromTokenId","type":"uint256","indexed":false,"internalType":"uint256"},{"name":"_toTokenId","type":"uint256","indexed":false,"internalType":"uint256"}],"anonymous":false},{"type":"event","name":"MetadataUpdate","inputs":[{"name":"_tokenId","type":"uint256","indexed":false,"internalType":"uint256"}],"anonymous":false},{"type":"event","name":"NFTBurned","inputs":[{"name":"tokenId","type":"uint256","indexed":false,"internalType":"uint256"}],"anonymous":false},{"type":"event","name":"NFTMinted","inputs":[{"name":"recipient","type":"address","indexed":true,"internalType":"address"},{"name":"tokenId","type":"uint256","indexed":false,"internalType":"uint256"},{"name":"uri","type":"string","indexed":false,"internalType":"string"}],"anonymous":false},{"type":"event","name":"OwnershipTransferred","inputs":[{"name":"previousOwner","type":"address","indexed":true,"internalType":"address"},{"name":"newOwner","type":"address","indexed":true,"internalType":"address"}],"anonymous":false},{"type":"event","name":"Transfer","inputs":[{"name":"from","type":"address","indexed":true,"internalType":"address"},{"name":"to","type":"address","indexed":true,"internalType":"address"},{"name":"tokenId","type":"uint256","indexed":true,"internalType":"uint256"}],"anonymous":false},{"type":"error","name":"ERC721IncorrectOwner","inputs":[{"name":"sender","type":"address","internalType":"address"},{"name":"tokenId","type":"uint256","internalType":"uint256"},{"name":"owner","type":"address","internalType":"address"}]},{"type":"error","name":"ERC721InsufficientApproval","inputs":[{"name":"operator","type":"address","internalType":"address"},{"name":"tokenId","type":"uint256","internalType":"uint256"}]},{"type":"error","name":"ERC721InvalidApprover","inputs":[{"name":"approver","type":"address","internalType":"address"}]},{"type":"error","name":"ERC721InvalidOperator","inputs":[{"name":"operator","type":"address","internalType":"address"}]},{"type":"error","name":"ERC721InvalidOwner","inputs":[{"name":"owner","type":"address","internalType":"address"}]},{"type":"error","name":"ERC721InvalidReceiver","inputs":[{"name":"receiver","type":"address","internalType":"address"}]},{"type":"error","name":"ERC721InvalidSender","inputs":[{"name":"sender","type":"address","internalType":"address"}]},{"type":"error","name":"ERC721NonexistentToken","inputs":[{"name":"tokenId","type":"uint256","internalType":"uint256"}]},{"type":"error","name":"OwnableInvalidOwner","inputs":[{"name":"owner","type":"address","internalType":"address"}]},{"type":"error","name":"OwnableUnauthorizedAccount","inputs":[{"name":"account","type":"address","internalType":"address"}]}],"bytecode":{"object":"0x60806040523480156200001157600080fd5b506040516200187e3803806200187e8339810160408190526200003491620001b6565b3382826000620000458382620002af565b506001620000548282620002af565b5050506001600160a01b0381166200008657604051631e4fbdf760e01b81526000600482015260240160405180910390fd5b62000091816200009f565b50506000600855506200037b565b600780546001600160a01b038381166001600160a01b0319831681179093556040519116919082907f8be0079c531659141344cd1fd0a4f28419497f9722a3daafe3b4186f6b6457e090600090a35050565b634e487b7160e01b600052604160045260246000fd5b600082601f8301126200011957600080fd5b81516001600160401b0380821115620001365762000136620000f1565b604051601f8301601f19908116603f01168101908282118183101715620001615762000161620000f1565b816040528381526020925086838588010111156200017e57600080fd5b600091505b83821015620001a2578582018301518183018401529082019062000183565b600093810190920192909252949350505050565b60008060408385031215620001ca57600080fd5b82516001600160401b0380821115620001e257600080fd5b620001f08683870162000107565b935060208501519150808211156200020757600080fd5b50620002168582860162000107565b9150509250929050565b600181811c908216806200023557607f821691505b6020821081036200025657634e487b7160e01b600052602260045260246000fd5b50919050565b601f821115620002aa57600081815260208120601f850160051c81016020861015620002855750805b601f850160051c820191505b81811015620002a65782815560010162000291565b5050505b505050565b81516001600160401b03811115620002cb57620002cb620000f1565b620002e381620002dc845462000220565b846200025c565b602080601f8311600181146200031b5760008415620003025750858301515b600019600386901b1c1916600185901b178555620002a6565b600085815260208120601f198616915b828110156200034c578886015182559484019460019091019084016200032b565b50858210156200036b5787850151600019600388901b60f8161c191681555b5050505050600190811b01905550565b6114f3806200038b6000396000f3fe608060405234801561001057600080fd5b50600436106101165760003560e01c8063715018a6116100a2578063b88d4fde11610071578063b88d4fde14610239578063c87b56dd1461024c578063e985e9c51461025f578063eacabe1414610272578063f2fde38b1461028557600080fd5b8063715018a6146102055780638da5cb5b1461020d57806395d89b411461021e578063a22cb4651461022657600080fd5b806323b872dd116100e957806323b872dd1461019857806342842e0e146101ab57806342966c68146101be5780636352211e146101d157806370a08231146101e457600080fd5b806301ffc9a71461011b57806306fdde0314610143578063081812fc14610158578063095ea7b314610183575b600080fd5b61012e610129366004610fa3565b610298565b60405190151581526020015b60405180910390f35b61014b6102c3565b60405161013a9190611010565b61016b610166366004611023565b610355565b6040516001600160a01b03909116815260200161013a565b610196610191366004611058565b61037e565b005b6101966101a6366004611082565b61038d565b6101966101b9366004611082565b61041d565b6101966101cc366004611023565b61043d565b61016b6101df366004611023565b610484565b6101f76101f23660046110be565b61048f565b60405190815260200161013a565b6101966104d7565b6007546001600160a01b031661016b565b61014b6104eb565b6101966102343660046110d9565b6104fa565b6101966102473660046111a1565b610505565b61014b61025a366004611023565b61051c565b61012e61026d36600461121d565b61062d565b610196610280366004611250565b61065b565b6101966102933660046110be565b6106dc565b60006001600160e01b03198216632483248360e11b14806102bd57506102bd8261071a565b92915050565b6060600080546102d2906112b2565b80601f01602080910402602001604051908101604052809291908181526020018280546102fe906112b2565b801561034b5780601f106103205761010080835404028352916020019161034b565b820191906000526020600020905b81548152906001019060200180831161032e57829003601f168201915b5050505050905090565b60006103608261076a565b506000828152600460205260409020546001600160a01b03166102bd565b6103898282336107a3565b5050565b6001600160a01b0382166103bc57604051633250574960e11b8152600060048201526024015b60405180910390fd5b60006103c98383336107b0565b9050836001600160a01b0316816001600160a01b031614610417576040516364283d7b60e01b81526001600160a01b03808616600483015260248201849052821660448201526064016103b3565b50505050565b61043883838360405180602001604052806000815250610505565b505050565b6104456108a9565b61044e816108d6565b6040518181527f3c176691ca154a2f6fe978a2a633a33ee77dbe2902e67a75400720845a4b2ce19060200160405180910390a150565b60006102bd8261076a565b60006001600160a01b0382166104bb576040516322718ad960e21b8152600060048201526024016103b3565b506001600160a01b031660009081526003602052604090205490565b6104df6108a9565b6104e96000610911565b565b6060600180546102d2906112b2565b610389338383610963565b61051084848461038d565b61041784848484610a02565b60606105278261076a565b5060008281526006602052604081208054610541906112b2565b80601f016020809104026020016040519081016040528092919081815260200182805461056d906112b2565b80156105ba5780601f1061058f576101008083540402835291602001916105ba565b820191906000526020600020905b81548152906001019060200180831161059d57829003601f168201915b5050505050905060006105d860408051602081019091526000815290565b905080516000036105ea575092915050565b81511561061c5780826040516020016106049291906112ec565b60405160208183030381529060405292505050919050565b61062584610b2b565b949350505050565b6001600160a01b03918216600090815260056020908152604080832093909416825291909152205460ff1690565b6106636108a9565b6008546106708382610ba0565b61067a8183610c05565b60016008600082825461068d919061131b565b92505081905550826001600160a01b03167fd35bb95e09c04b219e35047ce7b7b300e3384264ef84a40456943dbc0fc17c1482846040516106cf92919061133c565b60405180910390a2505050565b6106e46108a9565b6001600160a01b03811661070e57604051631e4fbdf760e01b8152600060048201526024016103b3565b61071781610911565b50565b60006001600160e01b031982166380ac58cd60e01b148061074b57506001600160e01b03198216635b5e139f60e01b145b806102bd57506301ffc9a760e01b6001600160e01b03198316146102bd565b6000818152600260205260408120546001600160a01b0316806102bd57604051637e27328960e01b8152600481018490526024016103b3565b6104388383836001610c55565b6000828152600260205260408120546001600160a01b03908116908316156107dd576107dd818486610d5b565b6001600160a01b0381161561081b576107fa600085600080610c55565b6001600160a01b038116600090815260036020526040902080546000190190555b6001600160a01b0385161561084a576001600160a01b0385166000908152600360205260409020805460010190555b60008481526002602052604080822080546001600160a01b0319166001600160a01b0389811691821790925591518793918516917fddf252ad1be2c89b69c2b068fc378daa952ba7f163c4a11628f55a4df523b3ef91a4949350505050565b6007546001600160a01b031633146104e95760405163118cdaa760e01b81523360048201526024016103b3565b60006108e560008360006107b0565b90506001600160a01b03811661038957604051637e27328960e01b8152600481018390526024016103b3565b600780546001600160a01b038381166001600160a01b0319831681179093556040519116919082907f8be0079c531659141344cd1fd0a4f28419497f9722a3daafe3b4186f6b6457e090600090a35050565b6001600160a01b03821661099557604051630b61174360e31b81526001600160a01b03831660048201526024016103b3565b6001600160a01b03838116600081815260056020908152604080832094871680845294825291829020805460ff191686151590811790915591519182527f17307eab39ab6107e8899845ad3d59bd9653f200f220920489ca2b5937696c31910160405180910390a3505050565b6001600160a01b0383163b1561041757604051630a85bd0160e11b81526001600160a01b0384169063150b7a0290610a44903390889087908790600401611355565b6020604051808303816000875af1925050508015610a7f575060408051601f3d908101601f19168201909252610a7c91810190611392565b60015b610ae8573d808015610aad576040519150601f19603f3d011682016040523d82523d6000602084013e610ab2565b606091505b508051600003610ae057604051633250574960e11b81526001600160a01b03851660048201526024016103b3565b805181602001fd5b6001600160e01b03198116630a85bd0160e11b14610b2457604051633250574960e11b81526001600160a01b03851660048201526024016103b3565b5050505050565b6060610b368261076a565b506000610b4e60408051602081019091526000815290565b90506000815111610b6e5760405180602001604052806000815250610b99565b80610b7884610dbf565b604051602001610b899291906112ec565b6040516020818303038152906040525b9392505050565b6001600160a01b038216610bca57604051633250574960e11b8152600060048201526024016103b3565b6000610bd8838360006107b0565b90506001600160a01b03811615610438576040516339e3563760e11b8152600060048201526024016103b3565b6000828152600660205260409020610c1d82826113fd565b506040518281527ff8e1a15aba9398e019f0b49df1a4fde98ee17ae345cb5f6b5e2c27f5033e8ce79060200160405180910390a15050565b8080610c6957506001600160a01b03821615155b15610d2b576000610c798461076a565b90506001600160a01b03831615801590610ca55750826001600160a01b0316816001600160a01b031614155b8015610cb85750610cb6818461062d565b155b15610ce15760405163a9fbf51f60e01b81526001600160a01b03841660048201526024016103b3565b8115610d295783856001600160a01b0316826001600160a01b03167f8c5be1e5ebec7d5bd14f71427d1e84f3dd0314c0f7b2291e5b200ac8c7c3b92560405160405180910390a45b505b5050600090815260046020526040902080546001600160a01b0319166001600160a01b0392909216919091179055565b610d66838383610e52565b610438576001600160a01b038316610d9457604051637e27328960e01b8152600481018290526024016103b3565b60405163177e802f60e01b81526001600160a01b0383166004820152602481018290526044016103b3565b60606000610dcc83610eb5565b600101905060008167ffffffffffffffff811115610dec57610dec611115565b6040519080825280601f01601f191660200182016040528015610e16576020820181803683370190505b5090508181016020015b600019016f181899199a1a9b1b9c1cb0b131b232b360811b600a86061a8153600a8504945084610e2057509392505050565b60006001600160a01b038316158015906106255750826001600160a01b0316846001600160a01b03161480610e8c5750610e8c848461062d565b806106255750506000908152600460205260409020546001600160a01b03908116911614919050565b60008072184f03e93ff9f4daa797ed6e38ed64bf6a1f0160401b8310610ef45772184f03e93ff9f4daa797ed6e38ed64bf6a1f0160401b830492506040015b6d04ee2d6d415b85acef81000000008310610f20576d04ee2d6d415b85acef8100000000830492506020015b662386f26fc100008310610f3e57662386f26fc10000830492506010015b6305f5e1008310610f56576305f5e100830492506008015b6127108310610f6a57612710830492506004015b60648310610f7c576064830492506002015b600a83106102bd5760010192915050565b6001600160e01b03198116811461071757600080fd5b600060208284031215610fb557600080fd5b8135610b9981610f8d565b60005b83811015610fdb578181015183820152602001610fc3565b50506000910152565b60008151808452610ffc816020860160208601610fc0565b601f01601f19169290920160200192915050565b602081526000610b996020830184610fe4565b60006020828403121561103557600080fd5b5035919050565b80356001600160a01b038116811461105357600080fd5b919050565b6000806040838503121561106b57600080fd5b6110748361103c565b946020939093013593505050565b60008060006060848603121561109757600080fd5b6110a08461103c565b92506110ae6020850161103c565b9150604084013590509250925092565b6000602082840312156110d057600080fd5b610b998261103c565b600080604083850312156110ec57600080fd5b6110f58361103c565b91506020830135801515811461110a57600080fd5b809150509250929050565b634e487b7160e01b600052604160045260246000fd5b600067ffffffffffffffff8084111561114657611146611115565b604051601f8501601f19908116603f0116810190828211818310171561116e5761116e611115565b8160405280935085815286868601111561118757600080fd5b858560208301376000602087830101525050509392505050565b600080600080608085870312156111b757600080fd5b6111c08561103c565b93506111ce6020860161103c565b925060408501359150606085013567ffffffffffffffff8111156111f157600080fd5b8501601f8101871361120257600080fd5b6112118782356020840161112b565b91505092959194509250565b6000806040838503121561123057600080fd5b6112398361103c565b91506112476020840161103c565b90509250929050565b6000806040838503121561126357600080fd5b61126c8361103c565b9150602083013567ffffffffffffffff81111561128857600080fd5b8301601f8101851361129957600080fd5b6112a88582356020840161112b565b9150509250929050565b600181811c908216806112c657607f821691505b6020821081036112e657634e487b7160e01b600052602260045260246000fd5b50919050565b600083516112fe818460208801610fc0565b835190830190611312818360208801610fc0565b01949350505050565b808201808211156102bd57634e487b7160e01b600052601160045260246000fd5b8281526040602082015260006106256040830184610fe4565b6001600160a01b038581168252841660208201526040810183905260806060820181905260009061138890830184610fe4565b9695505050505050565b6000602082840312156113a457600080fd5b8151610b9981610f8d565b601f82111561043857600081815260208120601f850160051c810160208610156113d65750805b601f850160051c820191505b818110156113f5578281556001016113e2565b505050505050565b815167ffffffffffffffff81111561141757611417611115565b61142b8161142584546112b2565b846113af565b602080601f83116001811461146057600084156114485750858301515b600019600386901b1c1916600185901b1785556113f5565b600085815260208120601f198616915b8281101561148f57888601518255948401946001909101908401611470565b50858210156114ad5787850151600019600388901b60f8161c191681555b5050505050600190811b0190555056fea26469706673582212203cda32196aedcd4761c6bc3e4a97112c3446a4a639b16cee07e6dc660778c15964736f6c63430008140033","linkReferences":{}},"methodIdentifiers":{"approve(address,uint256)":"095ea7b3","balanceOf(address)":"70a08231","burn(uint256)":"42966c68","getApproved(uint256)":"081812fc","isApprovedForAll(address,address)":"e985e9c5","mintNFT(address,string)":"eacabe14","name()":"06fdde03","owner()":"8da5cb5b","ownerOf(uint256)":"6352211e","renounceOwnership()":"715018a6","safeTransferFrom(address,address,uint256)":"42842e0e","safeTransferFrom(address,address,uint256,bytes)":"b88d4fde","setApprovalForAll(address,bool)":"a22cb465","supportsInterface(bytes4)":"01ffc9a7","symbol()":"95d89b41","tokenURI(uint256)":"c87b56dd","transferFrom(address,address,uint256)":"23b872dd","transferOwnership(address)":"f2fde38b"},"storageLayout":{"storage":[{"astId":39333,"contract":"src/EnteralKingDomERC21.sol:EnteralKingDomERC21","label":"_name","offset":0,"slot":"0","type":"t_string_storage"},{"astId":39335,"contract":"src/EnteralKingDomERC21.sol:EnteralKingDomERC21","label":"_symbol","offset":0,"slot":"1","type":"t_string_storage"},{"astId":39339,"contract":"src/EnteralKingDomERC21.sol:EnteralKingDomERC21","label":"_owners","offset":0,"slot":"2","type":"t_mapping(t_uint256,t_address)"},{"astId":39343,"contract":"src/EnteralKingDomERC21.sol:EnteralKingDomERC21","label":"_balances","offset":0,"slot":"3","type":"t_mapping(t_address,t_uint256)"},{"astId":39347,"contract":"src/EnteralKingDomERC21.sol:EnteralKingDomERC21","label":"_tokenApprovals","offset":0,"slot":"4","type":"t_mapping(t_uint256,t_address)"},{"astId":39353,"contract":"src/EnteralKingDomERC21.sol:EnteralKingDomERC21","label":"_operatorApprovals","offset":0,"slot":"5","type":"t_mapping(t_address,t_mapping(t_address,t_bool))"},{"astId":40472,"contract":"src/EnteralKingDomERC21.sol:EnteralKingDomERC21","label":"_tokenURIs","offset":0,"slot":"6","type":"t_mapping(t_uint256,t_string_storage)"},{"astId":38992,"contract":"src/EnteralKingDomERC21.sol:EnteralKingDomERC21","label":"_owner","offset":0,"slot":"7","type":"t_address"},{"astId":42092,"contract":"src/EnteralKingDomERC21.sol:EnteralKingDomERC21","label":"_tokenCounter","offset":0,"slot":"8","type":"t_uint256"}],"types":{"t_address":{"encoding":"inplace","label":"address","numberOfBytes":"20"},"t_bool":{"encoding":"inplace","label":"bool","numberOfBytes":"1"},"t_mapping(t_address,t_bool)":{"encoding":"mapping","key":"t_address","label":"mapping(address => bool)","numberOfBytes":"32","value":"t_bool"},"t_mapping(t_address,t_mapping(t_address,t_bool))":{"encoding":"mapping","key":"t_address","label":"mapping(address => mapping(address => bool))","numberOfBytes":"32","value":"t_mapping(t_address,t_bool)"},"t_mapping(t_address,t_uint256)":{"encoding":"mapping","key":"t_address","label":"mapping(address => uint256)","numberOfBytes":"32","value":"t_uint256"},"t_mapping(t_uint256,t_address)":{"encoding":"mapping","key":"t_uint256","label":"mapping(uint256 => address)","numberOfBytes":"32","value":"t_address"},"t_mapping(t_uint256,t_string_storage)":{"encoding":"mapping","key":"t_uint256","label":"mapping(uint256 => string)","numberOfBytes":"32","value":"t_string_storage"},"t_string_storage":{"encoding":"bytes","label":"string","numberOfBytes":"32"},"t_uint256":{"encoding":"inplace","label":"uint256","numberOfBytes":"32"}}},"id":39}