{
    "abi": [
        {
            "type": "function",
            "name": "multiCall",
            "inputs": [
                {
                    "name": "targets",
                    "type": "address[]",
                    "internalType": "address[]"
                },
                {
                    "name": "data",
                    "type": "bytes[]",
                    "internalType": "bytes[]"
                }
            ],
            "outputs": [
                {
                    "name": "",
                    "type": "bytes[]",
                    "internalType": "bytes[]"
                }
            ],
            "stateMutability": "view"
        }
    ],
    "bytecode": {
        "object": "0x608060405234801561001057600080fd5b50610485806100206000396000f3fe608060405234801561001057600080fd5b506004361061002b5760003560e01c8063da5b4ffd14610030575b600080fd5b61004361003e366004610277565b610059565b60405161005091906102e3565b60405180910390f35b60608382146100af5760405162461bcd60e51b815260206004820152601c60248201527f746172676574206c656e67746820213d2064617461206c656e6774680000000060448201526064015b60405180910390fd5b60008267ffffffffffffffff8111156100ca576100ca610375565b6040519080825280602002602001820160405280156100fd57816020015b60608152602001906001900390816100e85790505b50905060005b85811015610221576000808888848181106101205761012061038b565b905060200201602081019061013591906103a1565b6001600160a01b03168787858181106101505761015061038b565b905060200281019061016291906103d1565b604051610170929190610418565b600060405180830381855afa9150503d80600081146101ab576040519150601f19603f3d011682016040523d82523d6000602084013e6101b0565b606091505b5091509150816101f05760405162461bcd60e51b815260206004820152600b60248201526a18d85b1b0819985a5b195960aa1b60448201526064016100a6565b808484815181106102035761020361038b565b602002602001018190525050508061021a90610428565b9050610103565b5095945050505050565b60008083601f84011261023d57600080fd5b50813567ffffffffffffffff81111561025557600080fd5b6020830191508360208260051b850101111561027057600080fd5b9250929050565b6000806000806040858703121561028d57600080fd5b843567ffffffffffffffff808211156102a557600080fd5b6102b18883890161022b565b909650945060208701359150808211156102ca57600080fd5b506102d78782880161022b565b95989497509550505050565b6000602080830181845280855180835260408601915060408160051b87010192508387016000805b8381101561036757888603603f1901855282518051808852835b81811015610340578281018a01518982018b01528901610325565b508781018901849052601f01601f191690960187019550938601939186019160010161030b565b509398975050505050505050565b634e487b7160e01b600052604160045260246000fd5b634e487b7160e01b600052603260045260246000fd5b6000602082840312156103b357600080fd5b81356001600160a01b03811681146103ca57600080fd5b9392505050565b6000808335601e198436030181126103e857600080fd5b83018035915067ffffffffffffffff82111561040357600080fd5b60200191503681900382131561027057600080fd5b8183823760009101908152919050565b60006001820161044857634e487b7160e01b600052601160045260246000fd5b506001019056fea2646970667358221220916b478bca55b516ff2109043085526ff252d29a4b8839d9764c069428f7d3e064736f6c63430008140033",
        "linkReferences": {}
    },
    "methodIdentifiers": {
        "multiCall(address[],bytes[])": "da5b4ffd"
    },
    "storageLayout": {
        "storage": [],
        "types": {}
    },
    "id": 40
}