{"abi":[{"type":"function","name":"multiDelegatecall","inputs":[{"name":"data","type":"bytes[]","internalType":"bytes[]"}],"outputs":[{"name":"results","type":"bytes[]","internalType":"bytes[]"}],"stateMutability":"payable"},{"type":"error","name":"DelegateCallFail","inputs":[]}],"bytecode":{"object":"0x608060405234801561001057600080fd5b50610367806100206000396000f3fe60806040526004361061001e5760003560e01c806310957d3c14610023575b600080fd5b610036610031366004610179565b61004c565b60405161004391906101ee565b60405180910390f35b60608167ffffffffffffffff81111561006757610067610280565b60405190808252806020026020018201604052801561009a57816020015b60608152602001906001900390816100855790505b50905060005b8281101561017257600080308686858181106100be576100be610296565b90506020028101906100d091906102ac565b6040516100de9291906102fa565b600060405180830381855af49150503d8060008114610119576040519150601f19603f3d011682016040523d82523d6000602084013e61011e565b606091505b50915091508161014157604051637059e12360e11b815260040160405180910390fd5b8084848151811061015457610154610296565b602002602001018190525050508061016b9061030a565b90506100a0565b5092915050565b6000806020838503121561018c57600080fd5b823567ffffffffffffffff808211156101a457600080fd5b818501915085601f8301126101b857600080fd5b8135818111156101c757600080fd5b8660208260051b85010111156101dc57600080fd5b60209290920196919550909350505050565b6000602080830181845280855180835260408601915060408160051b87010192508387016000805b8381101561027257888603603f1901855282518051808852835b8181101561024b578281018a01518982018b01528901610230565b508781018901849052601f01601f1916909601870195509386019391860191600101610216565b509398975050505050505050565b634e487b7160e01b600052604160045260246000fd5b634e487b7160e01b600052603260045260246000fd5b6000808335601e198436030181126102c357600080fd5b83018035915067ffffffffffffffff8211156102de57600080fd5b6020019150368190038213156102f357600080fd5b9250929050565b8183823760009101908152919050565b60006001820161032a57634e487b7160e01b600052601160045260246000fd5b506001019056fea2646970667358221220174f42a2f7a8e02e3f4172e2edc69d5df0c529e0b19ac4f79e458e7cd6c6366a64736f6c63430008140033","linkReferences":{}},"methodIdentifiers":{"multiDelegatecall(bytes[])":"10957d3c"},"storageLayout":{"storage":[],"types":{}},"id":38}